{
  "abi": [
    {
      "inputs": [
        {
          "internalType": "string",
          "name": "name_",
          "type": "string"
        },
        {
          "internalType": "string",
          "name": "symbol_",
          "type": "string"
        }
      ],
      "stateMutability": "nonpayable",
      "type": "constructor"
    },
    {
      "inputs": [
        {
          "internalType": "address",
          "name": "sender",
          "type": "address"
        },
        {
          "internalType": "address",
          "name": "csrModuleAccount",
          "type": "address"
        }
      ],
      "name": "notCSRModuleAccount",
      "type": "error"
    },
    {
      "inputs": [
        {
          "internalType": "address",
          "name": "sender",
          "type": "address"
        },
        {
          "internalType": "address",
          "name": "actualWithdrawer",
          "type": "address"
        },
        {
          "internalType": "uint256",
          "name": "nftId",
          "type": "uint256"
        }
      ],
      "name": "notWithdrawer",
      "type": "error"
    },
    {
      "anonymous": false,
      "inputs": [
        {
          "indexed": true,
          "internalType": "address",
          "name": "owner",
          "type": "address"
        },
        {
          "indexed": true,
          "internalType": "address",
          "name": "approved",
          "type": "address"
        },
        {
          "indexed": true,
          "internalType": "uint256",
          "name": "tokenId",
          "type": "uint256"
        }
      ],
      "name": "Approval",
      "type": "event"
    },
    {
      "anonymous": false,
      "inputs": [
        {
          "indexed": true,
          "internalType": "address",
          "name": "owner",
          "type": "address"
        },
        {
          "indexed": true,
          "internalType": "address",
          "name": "operator",
          "type": "address"
        },
        {
          "indexed": false,
          "internalType": "bool",
          "name": "approved",
          "type": "bool"
        }
      ],
      "name": "ApprovalForAll",
      "type": "event"
    },
    {
      "anonymous": false,
      "inputs": [
        {
          "indexed": true,
          "internalType": "address",
          "name": "from",
          "type": "address"
        },
        {
          "indexed": true,
          "internalType": "address",
          "name": "to",
          "type": "address"
        },
        {
          "indexed": true,
          "internalType": "uint256",
          "name": "tokenId",
          "type": "uint256"
        }
      ],
      "name": "Transfer",
      "type": "event"
    },
    {
      "anonymous": false,
      "inputs": [
        {
          "indexed": false,
          "internalType": "address",
          "name": "withdrawer",
          "type": "address"
        },
        {
          "indexed": false,
          "internalType": "address",
          "name": "receiver",
          "type": "address"
        },
        {
          "indexed": false,
          "internalType": "uint256",
          "name": "id",
          "type": "uint256"
        }
      ],
      "name": "Withdrawal",
      "type": "event"
    },
    {
      "inputs": [
        {
          "internalType": "address",
          "name": "to",
          "type": "address"
        },
        {
          "internalType": "uint256",
          "name": "tokenId",
          "type": "uint256"
        }
      ],
      "name": "approve",
      "outputs": [],
      "stateMutability": "nonpayable",
      "type": "function"
    },
    {
      "inputs": [
        {
          "internalType": "address",
          "name": "owner",
          "type": "address"
        }
      ],
      "name": "balanceOf",
      "outputs": [
        {
          "internalType": "uint256",
          "name": "",
          "type": "uint256"
        }
      ],
      "stateMutability": "view",
      "type": "function"
    },
    {
      "inputs": [],
      "name": "csrModuleAccount",
      "outputs": [
        {
          "internalType": "address",
          "name": "",
          "type": "address"
        }
      ],
      "stateMutability": "view",
      "type": "function"
    },
    {
      "inputs": [
        {
          "internalType": "uint256",
          "name": "tokenId",
          "type": "uint256"
        }
      ],
      "name": "getApproved",
      "outputs": [
        {
          "internalType": "address",
          "name": "",
          "type": "address"
        }
      ],
      "stateMutability": "view",
      "type": "function"
    },
    {
      "inputs": [
        {
          "internalType": "address",
          "name": "owner",
          "type": "address"
        },
        {
          "internalType": "address",
          "name": "operator",
          "type": "address"
        }
      ],
      "name": "isApprovedForAll",
      "outputs": [
        {
          "internalType": "bool",
          "name": "",
          "type": "bool"
        }
      ],
      "stateMutability": "view",
      "type": "function"
    },
    {
      "inputs": [
        {
          "internalType": "address",
          "name": "owner_",
          "type": "address"
        }
      ],
      "name": "mintCSR",
      "outputs": [
        {
          "internalType": "uint64",
          "name": "",
          "type": "uint64"
        }
      ],
      "stateMutability": "nonpayable",
      "type": "function"
    },
    {
      "inputs": [],
      "name": "name",
      "outputs": [
        {
          "internalType": "string",
          "name": "",
          "type": "string"
        }
      ],
      "stateMutability": "view",
      "type": "function"
    },
    {
      "inputs": [],
      "name": "nfts",
      "outputs": [
        {
          "internalType": "uint256",
          "name": "",
          "type": "uint256"
        }
      ],
      "stateMutability": "view",
      "type": "function"
    },
    {
      "inputs": [
        {
          "internalType": "uint256",
          "name": "tokenId",
          "type": "uint256"
        }
      ],
      "name": "ownerOf",
      "outputs": [
        {
          "internalType": "address",
          "name": "",
          "type": "address"
        }
      ],
      "stateMutability": "view",
      "type": "function"
    },
    {
      "inputs": [
        {
          "internalType": "address",
          "name": "from",
          "type": "address"
        },
        {
          "internalType": "address",
          "name": "to",
          "type": "address"
        },
        {
          "internalType": "uint256",
          "name": "tokenId",
          "type": "uint256"
        }
      ],
      "name": "safeTransferFrom",
      "outputs": [],
      "stateMutability": "nonpayable",
      "type": "function"
    },
    {
      "inputs": [
        {
          "internalType": "address",
          "name": "from",
          "type": "address"
        },
        {
          "internalType": "address",
          "name": "to",
          "type": "address"
        },
        {
          "internalType": "uint256",
          "name": "tokenId",
          "type": "uint256"
        },
        {
          "internalType": "bytes",
          "name": "data",
          "type": "bytes"
        }
      ],
      "name": "safeTransferFrom",
      "outputs": [],
      "stateMutability": "nonpayable",
      "type": "function"
    },
    {
      "inputs": [
        {
          "internalType": "address",
          "name": "operator",
          "type": "address"
        },
        {
          "internalType": "bool",
          "name": "approved",
          "type": "bool"
        }
      ],
      "name": "setApprovalForAll",
      "outputs": [],
      "stateMutability": "nonpayable",
      "type": "function"
    },
    {
      "inputs": [
        {
          "internalType": "bytes4",
          "name": "interfaceId",
          "type": "bytes4"
        }
      ],
      "name": "supportsInterface",
      "outputs": [
        {
          "internalType": "bool",
          "name": "",
          "type": "bool"
        }
      ],
      "stateMutability": "view",
      "type": "function"
    },
    {
      "inputs": [],
      "name": "symbol",
      "outputs": [
        {
          "internalType": "string",
          "name": "",
          "type": "string"
        }
      ],
      "stateMutability": "view",
      "type": "function"
    },
    {
      "inputs": [
        {
          "internalType": "uint256",
          "name": "tokenId",
          "type": "uint256"
        }
      ],
      "name": "tokenURI",
      "outputs": [
        {
          "internalType": "string",
          "name": "",
          "type": "string"
        }
      ],
      "stateMutability": "view",
      "type": "function"
    },
    {
      "inputs": [
        {
          "internalType": "address",
          "name": "from",
          "type": "address"
        },
        {
          "internalType": "address",
          "name": "to",
          "type": "address"
        },
        {
          "internalType": "uint256",
          "name": "tokenId",
          "type": "uint256"
        }
      ],
      "name": "transferFrom",
      "outputs": [],
      "stateMutability": "nonpayable",
      "type": "function"
    },
    {
      "inputs": [
        {
          "internalType": "address",
          "name": "receiver",
          "type": "address"
        },
        {
          "internalType": "uint256",
          "name": "nftId",
          "type": "uint256"
        }
      ],
      "name": "withdraw",
      "outputs": [],
      "stateMutability": "nonpayable",
      "type": "function"
    }
  ],
  "bytecode": {
    "object": "0x60806040523480156200001157600080fd5b50604051620017a3380380620017a383398101604081905262000034916200013e565b8181600062000044838262000237565b50600162000053828262000237565b5050600680546001600160a01b031916331790555062000303915050565b634e487b7160e01b600052604160045260246000fd5b600082601f8301126200009957600080fd5b81516001600160401b0380821115620000b657620000b662000071565b604051601f8301601f19908116603f01168101908282118183101715620000e157620000e162000071565b81604052838152602092508683858801011115620000fe57600080fd5b600091505b8382101562000122578582018301518183018401529082019062000103565b83821115620001345760008385830101525b9695505050505050565b600080604083850312156200015257600080fd5b82516001600160401b03808211156200016a57600080fd5b620001788683870162000087565b935060208501519150808211156200018f57600080fd5b506200019e8582860162000087565b9150509250929050565b600181811c90821680620001bd57607f821691505b602082108103620001de57634e487b7160e01b600052602260045260246000fd5b50919050565b601f8211156200023257600081815260208120601f850160051c810160208610156200020d5750805b601f850160051c820191505b818110156200022e5782815560010162000219565b5050505b505050565b81516001600160401b0381111562000253576200025362000071565b6200026b81620002648454620001a8565b84620001e4565b602080601f831160018114620002a357600084156200028a5750858301515b600019600386901b1c1916600185901b1785556200022e565b600085815260208120601f198616915b82811015620002d457888601518255948401946001909101908401620002b3565b5085821015620002f35787850151600019600388901b60f8161c191681555b5050505050600190811b01905550565b61149080620003136000396000f3fe608060405234801561001057600080fd5b506004361061010b5760003560e01c80636352211e116100a2578063a22cb46511610071578063a22cb46514610237578063b88d4fde1461024a578063c87b56dd1461025d578063e985e9c514610270578063f3fef3a3146102ac57600080fd5b80636352211e146101dd57806370a08231146101f057806377a40e581461020357806395d89b411461022f57600080fd5b80631714f2e0116100de5780631714f2e01461018d57806323b872dd146101a457806342842e0e146101b75780635fc391b7146101ca57600080fd5b806301ffc9a71461011057806306fdde0314610138578063081812fc1461014d578063095ea7b314610178575b600080fd5b61012361011e366004610ff3565b6102bf565b60405190151581526020015b60405180910390f35b610140610311565b60405161012f9190611068565b61016061015b36600461107b565b6103a3565b6040516001600160a01b03909116815260200161012f565b61018b6101863660046110b0565b6103ca565b005b61019660075481565b60405190815260200161012f565b61018b6101b23660046110da565b6104e4565b61018b6101c53660046110da565b610515565b600654610160906001600160a01b031681565b6101606101eb36600461107b565b610530565b6101966101fe366004611116565b610590565b610216610211366004611116565b610616565b60405167ffffffffffffffff909116815260200161012f565b610140610694565b61018b610245366004611131565b6106a3565b61018b610258366004611183565b6106b2565b61014061026b36600461107b565b6106ea565b61012361027e36600461125f565b6001600160a01b03918216600090815260056020908152604080832093909416825291909152205460ff1690565b61018b6102ba3660046110b0565b61075e565b60006001600160e01b031982166380ac58cd60e01b14806102f057506001600160e01b03198216635b5e139f60e01b145b8061030b57506301ffc9a760e01b6001600160e01b03198316145b92915050565b60606000805461032090611292565b80601f016020809104026020016040519081016040528092919081815260200182805461034c90611292565b80156103995780601f1061036e57610100808354040283529160200191610399565b820191906000526020600020905b81548152906001019060200180831161037c57829003601f168201915b5050505050905090565b60006103ae82610804565b506000908152600460205260409020546001600160a01b031690565b60006103d582610530565b9050806001600160a01b0316836001600160a01b0316036104475760405162461bcd60e51b815260206004820152602160248201527f4552433732313a20617070726f76616c20746f2063757272656e74206f776e656044820152603960f91b60648201526084015b60405180910390fd5b336001600160a01b03821614806104635750610463813361027e565b6104d55760405162461bcd60e51b815260206004820152603d60248201527f4552433732313a20617070726f76652063616c6c6572206973206e6f7420746f60448201527f6b656e206f776e6572206f7220617070726f76656420666f7220616c6c000000606482015260840161043e565b6104df8383610866565b505050565b6104ee33826108d4565b61050a5760405162461bcd60e51b815260040161043e906112c6565b6104df838383610953565b6104df838383604051806020016040528060008152506106b2565b6000818152600260205260408120546001600160a01b03168061030b5760405162461bcd60e51b8152602060048201526018602482015277115490cdcc8c4e881a5b9d985b1a59081d1bdad95b88125160421b604482015260640161043e565b60006001600160a01b0382166105fa5760405162461bcd60e51b815260206004820152602960248201527f4552433732313a2061646472657373207a65726f206973206e6f7420612076616044820152683634b21037bbb732b960b91b606482015260840161043e565b506001600160a01b031660009081526003602052604090205490565b60065460009033906001600160a01b0316811461065d5760065460405163a930702f60e01b81526001600160a01b038084166004830152909116602482015260440161043e565b6007805490600061066d83611313565b919050555061068e8360075460405180602001604052806000815250610ab7565b50919050565b60606001805461032090611292565b6106ae338383610aea565b5050565b6106bc33836108d4565b6106d85760405162461bcd60e51b815260040161043e906112c6565b6106e484848484610bb8565b50505050565b60606106f582610804565b600061070c60408051602081019091526000815290565b9050600081511161072c5760405180602001604052806000815250610757565b8061073684610beb565b60405160200161074792919061133a565b6040516020818303038152906040525b9392505050565b80338061076a83610530565b6001600160a01b0316146107b5578061078283610530565b604051634e04f8c560e01b81526001600160a01b039283166004820152911660248201526044810183905260640161043e565b604080513381526001600160a01b03861660208201529081018490527f2717ead6b9200dd235aad468c9809ea400fe33ac69b5bfaa6d3e90fc922b63989060600160405180910390a150505050565b6000818152600260205260409020546001600160a01b03166108635760405162461bcd60e51b8152602060048201526018602482015277115490cdcc8c4e881a5b9d985b1a59081d1bdad95b88125160421b604482015260640161043e565b50565b600081815260046020526040902080546001600160a01b0319166001600160a01b038416908117909155819061089b82610530565b6001600160a01b03167f8c5be1e5ebec7d5bd14f71427d1e84f3dd0314c0f7b2291e5b200ac8c7c3b92560405160405180910390a45050565b6000806108e083610530565b9050806001600160a01b0316846001600160a01b0316148061092757506001600160a01b0380821660009081526005602090815260408083209388168352929052205460ff165b8061094b5750836001600160a01b0316610940846103a3565b6001600160a01b0316145b949350505050565b826001600160a01b031661096682610530565b6001600160a01b03161461098c5760405162461bcd60e51b815260040161043e90611369565b6001600160a01b0382166109ee5760405162461bcd60e51b8152602060048201526024808201527f4552433732313a207472616e7366657220746f20746865207a65726f206164646044820152637265737360e01b606482015260840161043e565b826001600160a01b0316610a0182610530565b6001600160a01b031614610a275760405162461bcd60e51b815260040161043e90611369565b600081815260046020908152604080832080546001600160a01b03199081169091556001600160a01b0387811680865260038552838620805460001901905590871680865283862080546001019055868652600290945282852080549092168417909155905184937fddf252ad1be2c89b69c2b068fc378daa952ba7f163c4a11628f55a4df523b3ef91a4505050565b610ac18383610d51565b610ace6000848484610edc565b6104df5760405162461bcd60e51b815260040161043e906113ae565b816001600160a01b0316836001600160a01b031603610b4b5760405162461bcd60e51b815260206004820152601960248201527f4552433732313a20617070726f766520746f2063616c6c657200000000000000604482015260640161043e565b6001600160a01b03838116600081815260056020908152604080832094871680845294825291829020805460ff191686151590811790915591519182527f17307eab39ab6107e8899845ad3d59bd9653f200f220920489ca2b5937696c31910160405180910390a3505050565b610bc3848484610953565b610bcf84848484610edc565b6106e45760405162461bcd60e51b815260040161043e906113ae565b606060018272184f03e93ff9f4daa797ed6e38ed64bf6a1f0160401b8110610c2e576040919091019072184f03e93ff9f4daa797ed6e38ed64bf6a1f0160401b90045b6d04ee2d6d415b85acef81000000008110610c5c57602091909101906d04ee2d6d415b85acef810000000090045b662386f26fc100008110610c7c5760109190910190662386f26fc1000090045b6305f5e1008110610c9657600891909101906305f5e10090045b6127108110610cac576004919091019061271090045b60648110610cc05760029190910190606490045b600a8110610ccf576001820191505b60008267ffffffffffffffff811115610cea57610cea61116d565b6040519080825280601f01601f191660200182016040528015610d14576020820181803683370190505b5090508281016020015b600019016f181899199a1a9b1b9c1cb0b131b232b360811b600a87061a8153600a8604955085610d1e5750949350505050565b6001600160a01b038216610da75760405162461bcd60e51b815260206004820181905260248201527f4552433732313a206d696e7420746f20746865207a65726f2061646472657373604482015260640161043e565b6000818152600260205260409020546001600160a01b031615610e0c5760405162461bcd60e51b815260206004820152601c60248201527f4552433732313a20746f6b656e20616c7265616479206d696e74656400000000604482015260640161043e565b6000818152600260205260409020546001600160a01b031615610e715760405162461bcd60e51b815260206004820152601c60248201527f4552433732313a20746f6b656e20616c7265616479206d696e74656400000000604482015260640161043e565b6001600160a01b038216600081815260036020908152604080832080546001019055848352600290915280822080546001600160a01b0319168417905551839291907fddf252ad1be2c89b69c2b068fc378daa952ba7f163c4a11628f55a4df523b3ef908290a45050565b60006001600160a01b0384163b15610fd257604051630a85bd0160e11b81526001600160a01b0385169063150b7a0290610f20903390899088908890600401611400565b6020604051808303816000875af1925050508015610f5b575060408051601f3d908101601f19168201909252610f589181019061143d565b60015b610fb8573d808015610f89576040519150601f19603f3d011682016040523d82523d6000602084013e610f8e565b606091505b508051600003610fb05760405162461bcd60e51b815260040161043e906113ae565b805181602001fd5b6001600160e01b031916630a85bd0160e11b14905061094b565b506001949350505050565b6001600160e01b03198116811461086357600080fd5b60006020828403121561100557600080fd5b813561075781610fdd565b60005b8381101561102b578181015183820152602001611013565b838111156106e45750506000910152565b60008151808452611054816020860160208601611010565b601f01601f19169290920160200192915050565b602081526000610757602083018461103c565b60006020828403121561108d57600080fd5b5035919050565b80356001600160a01b03811681146110ab57600080fd5b919050565b600080604083850312156110c357600080fd5b6110cc83611094565b946020939093013593505050565b6000806000606084860312156110ef57600080fd5b6110f884611094565b925061110660208501611094565b9150604084013590509250925092565b60006020828403121561112857600080fd5b61075782611094565b6000806040838503121561114457600080fd5b61114d83611094565b91506020830135801515811461116257600080fd5b809150509250929050565b634e487b7160e01b600052604160045260246000fd5b6000806000806080858703121561119957600080fd5b6111a285611094565b93506111b060208601611094565b925060408501359150606085013567ffffffffffffffff808211156111d457600080fd5b818701915087601f8301126111e857600080fd5b8135818111156111fa576111fa61116d565b604051601f8201601f19908116603f011681019083821181831017156112225761122261116d565b816040528281528a602084870101111561123b57600080fd5b82602086016020830137600060208483010152809550505050505092959194509250565b6000806040838503121561127257600080fd5b61127b83611094565b915061128960208401611094565b90509250929050565b600181811c908216806112a657607f821691505b60208210810361068e57634e487b7160e01b600052602260045260246000fd5b6020808252602d908201527f4552433732313a2063616c6c6572206973206e6f7420746f6b656e206f776e6560408201526c1c881bdc88185c1c1c9bdd9959609a1b606082015260800190565b60006001820161133357634e487b7160e01b600052601160045260246000fd5b5060010190565b6000835161134c818460208801611010565b835190830190611360818360208801611010565b01949350505050565b60208082526025908201527f4552433732313a207472616e736665722066726f6d20696e636f72726563742060408201526437bbb732b960d91b606082015260800190565b60208082526032908201527f4552433732313a207472616e7366657220746f206e6f6e20455243373231526560408201527131b2b4bb32b91034b6b83632b6b2b73a32b960711b606082015260800190565b6001600160a01b03858116825284166020820152604081018390526080606082018190526000906114339083018461103c565b9695505050505050565b60006020828403121561144f57600080fd5b815161075781610fdd56fea2646970667358221220df0e984ce04ee3537ab63c52101f2b19acf4b7983b5c3c8e91301d3e14352a9364736f6c634300080f0033",
    "linkReferences": {}
  },
  "methodIdentifiers": {
    "approve(address,uint256)": "095ea7b3",
    "balanceOf(address)": "70a08231",
    "csrModuleAccount()": "5fc391b7",
    "getApproved(uint256)": "081812fc",
    "isApprovedForAll(address,address)": "e985e9c5",
    "mintCSR(address)": "77a40e58",
    "name()": "06fdde03",
    "nfts()": "1714f2e0",
    "ownerOf(uint256)": "6352211e",
    "safeTransferFrom(address,address,uint256)": "42842e0e",
    "safeTransferFrom(address,address,uint256,bytes)": "b88d4fde",
    "setApprovalForAll(address,bool)": "a22cb465",
    "supportsInterface(bytes4)": "01ffc9a7",
    "symbol()": "95d89b41",
    "tokenURI(uint256)": "c87b56dd",
    "transferFrom(address,address,uint256)": "23b872dd",
    "withdraw(address,uint256)": "f3fef3a3"
  },
  "id": 16
}